:100000000C94AB000C94D3000C94D3000C94B3026A
:100010000C94D7020C94FB020C94D3000C94D300E4
:100020000C94D3000C94D3000C94D3000C94D30004
:100030000C94D3000C94D3000C94D3000C94D300F4
:100040000C9485040C94D3000C94D3000C94D3002E
:100050000C94D3000C94D3000C94D3000C94D300D4
:100060000C94D3000C94D30000C2010001001100D5
:1000700011000C0000E100000A002500250021000D
:10008000009600001900390039003600127A00008D
:100090001F004600460044008070000022004D0012
:1000A0004D004A00004B00003600750075007200DC
:1000B000403800004A009C009C0099008025000008
:1000C0007200EC00EC00E900C0120000E900DA0167
:1000D000DA01D70160090000D701B603B603B30304
:1000E000B0040000B3036E076E076B072C0100001D
:1000F000DC0EC11DC11DBE1D000000070002010075
:1001000000030406000000000000000001020408D3
:100110001020408001020408102001020408102071
:10012000040404040404040402020202020203039D
:100130000303030300000000230026002900000041
:100140000000250028002B000000000024002700EC
:100150002A001F01260111241FBECFEFD8E0DEBF09
:10016000CDBF11E0A0E0B1E0E4EBFCE002C00590FF
:100170000D92A832B107D9F711E0A8E2B1E001C0B1
:100180001D92A139B107E1F711E0C4E5D1E004C047
:100190002297FE010E944906C235D107C9F70E9485
:1001A000D5000C944D060C9400000E9421050E947D
:1001B000E50080E0E82E80E0F82E0E94ED00E114DA
:1001C000F104D9F30E940000F8CF40E659E060E066
:1001D00070E088E291E00C94AD03E0910201F091AF
:1001E0000301EC5FFE4F608188E291E00E943B02D8
:1001F0006AE070E080E090E00E94F90480910101E3
:10020000882339F0E0910001F0E0E85FFE4F608163
:1002100001C060E488E291E00E943B026AE070E085
:1002200080E090E00E94F90463E888E291E00E9497
:100230003B026AE070E080E090E00C94F90421E079
:1002400042E06AE088E291E00C947C0388E291E06D
:100250000C947E042091860130918701281739077C
:10026000C1F49091440180914501981791F0E0917B
:100270004401F0E0EA5BFE4F80812091440130E0D0
:100280002F5F3F4F2F73332720934401282F30E0F7
:1002900002C02FEF3FEFC9010895209186013091F0
:1002A00087012817390771F4909144018091450125
:1002B000981741F0E0914401F0E0EA5BFE4F2081A5
:1002C00030E002C02FEF3FEFC90108952091860171
:1002D000309187012817390739F48FB7F8941092B5
:1002E0004501109244018FBF0895209186013091FD
:1002F00087012817390779F480914501209144013D
:1003000090E0805C9F4F821B910960E470E00E9446
:100310001F069C0102C020E030E0C9010895DC0105
:100320005196ED91FC915297208150968C91809539
:1003300082238083089520E001972FEF8F3F92075B
:10034000D9F7089520918601309187012817390740
:1003500089F0FC01238D2E7F238F2FB7F894109204
:1003600045011092440190938701809386012FBF2D
:1003700081E0089580E00895CF92DF92EF92FF929E
:10038000CF93DF937C01DC015B968C915B971E968B
:10039000ED91FC911F971D969C9181FF04C0808177
:1003A000892329F452C08081892309F04EC0F701C6
:1003B000838994890E949B0188E0C82ED12CD1E0CA
:1003C000C0E0D70155968D919C9156970E949B0154
:1003D000D7011E96ED91FC911F9780811D969C91EF
:1003E000892311F0CD2B03C08D2F8095C823DD0FFD
:1003F000B1E0CB1AD10829F7F7018789908D0E94C7
:100400009B01D7015B968C9181FDC0958091450140
:100410002091440190E001968F73992730E0821774
:10042000930779F0E0914501F0E0EA5BFE4FC0836D
:100430008091450190E001968F7399278093450143
:1004400004C0F701838D8160838FDF91CF91FF908E
:10045000EF90DF90CF900895611102C00C948F014E
:10046000DC015196ED91FC915297208150968C9130
:10047000282B20830895CF92DF92EF92FF921F9353
:10048000CF93DF937C01D62FFC01818D928D892B38
:1004900039F481E090E09383828320E030E051C022
:1004A0001FB7F894F701638D66956170C7010E94CC
:1004B0002C02F701818D928D05960E949B01F70118
:1004C000838D98E0C92ED12CC1E081FF19C08C2FFB
:1004D0008D2321F0C7010E948F0104C061E0C70194
:1004E0000E942C02F701818D928D0E949B01CC0FFE
:1004F000F1E0CF1AD10859F7C7010E948F0119C046
:100500008C2F8D2329F061E0C7010E942C0203C0CB
:10051000C7010E948F01F701818D928D0E949B017E
:10052000CC0FF1E0CF1AD10859F761E0C7010E9462
:100530002C021FBFF701818D928D0E949B0121E04B
:1005400030E0C901DF91CF911F91FF90EF90DF90D4
:10055000CF9008958091860190918701009711F0C6
:100560000C94BC0108951F920F920FB60F921124A4
:100570002F933F934F935F936F937F938F939F93AB
:10058000AF93BF93EF93FF930E94AA02FF91EF9165
:10059000BF91AF919F918F917F916F915F914F919B
:1005A0003F912F910F900FBE0F901F9018951F92A3
:1005B0000F920FB60F9211242F933F934F935F9397
:1005C0006F937F938F939F93AF93BF93EF93FF931B
:1005D0000E94AA02FF91EF91BF91AF919F918F91DD
:1005E0007F916F915F914F913F912F910F900FBE2F
:1005F0000F901F9018951F920F920FB60F92112413
:100600002F933F934F935F936F937F938F939F931A
:10061000AF93BF93EF93FF930E94AA02FF91EF91D4
:10062000BF91AF919F918F917F916F915F914F910A
:100630003F912F910F900FBE0F901F901895EF9242
:10064000FF92CF937C01C62F61E08C2F0E9486051C
:1006500061E08C2F0E94BE058C2F90E0FC01E45FCE
:10066000FE4FE491D7015096EC935097FC01E05E69
:10067000FE4FE491F0E0EE0FFF1FE25CFE4F85912C
:10068000949151968C93519752969C93CF91FF9051
:10069000EF900895EF92FF92CF937C01C62F60E018
:1006A0008C2F0E948605D7015B968C9181FD04C03A
:1006B00061E08C2F0E94BE05F701C4878C2F90E06B
:1006C000FC01E45FFE4FE491D7011D96EC931D976A
:1006D000FC01E05EFE4FE491F0E0EE0FFF1FEC5CEA
:1006E000FE4F859194911E968C931E971F969C9316
:1006F000CF91FF90EF900895EF92FF920F931F9389
:10070000CF937C01C62F522FFC011382128208EE78
:1007100013E020E030E004831583268337838CE1E7
:1007200091E091838083148A138A168A158A108E29
:10073000178A128E118E838D8E7F50FB81F9838FE5
:10074000642FC7010E941F036C2FC701CF911F9117
:100750000F91FF90EF900C944A03EF92FF920F934A
:100760001F93CF937C01FC01128E118E108E178A7D
:10077000168A158A148A138AA0E0B0E0CCE0CA9FDA
:10078000C001CB9F900D1124FC01E859FF4F05914A
:10079000159125913491041715072607370709F598
:1007A000FC01E459FF4F25913491F701238B348BE1
:1007B000FC01E259FF4F25913491F701258B368BCF
:1007C000FC01E059FF4F25913491F701278B308FC1
:1007D0008E589F4FFC0185919491F701818F928FE4
:1007E00005C01196AC30B10509F0C9CFF701878972
:1007F000908D892B09F44BC03485363108F042C006
:1008000040916800383068F081E090E03E3010F4AC
:1008100080E090E021E030E001C0220F8A95EAF705
:1008200001C024E0242B20936800F7013485383080
:1008300038F03E3040F0363148F0E0E0F0E008C0FB
:10084000EDE6F0E005C0EBE6F0E002C0ECE6F0E03B
:100850004081383040F481E090E0282F01C0220F21
:100860003A95EAF70DC0832F90E03E3010F40897D8
:1008700001C00E9721E030E001C0220F8A95EAF70F
:10088000242B2083F701818D928D0E949B01C7014B
:10089000CF911F910F91FF90EF900C94A201FC015A
:1008A0004485463150F5483028F04E3030F4EBE6C0
:1008B000F0E005C0EDE6F0E002C0ECE6F0E05081CB
:1008C000483040F481E090E0042E01C0880F0A9483
:1008D000EAF710C0242F30E04E3018F428503109C8
:1008E00002C02E50310981E090E0022E01C0880F35
:1008F0000A94EAF780958523808308952CE131E0FE
:10090000FC01318320830C944F041F920F920FB689
:100910000F9211242F933F938F939F93AF93BF9385
:100920008091880190918901A0918A01B0918B01F9
:1009300030919001232F2D5F2D3720F40196A11DBA
:10094000B11D05C0232F2A570296A11DB11D20936A
:1009500090018093880190938901A0938A01B093BC
:100960008B0180918C0190918D01A0918E01B091AD
:100970008F010196A11DB11D80938C0190938D0173
:10098000A0938E01B0938F01BF91AF919F918F91F2
:100990003F912F910F900FBE0F901F9018950F93BE
:1009A0001F939FB7F89400918C0110918D012091B5
:1009B0008E0130918F0186B5A89B06C08F3F21F034
:1009C0000F5F1F4F2F4F3F4F9FBF322F212F102FF1
:1009D0000027080F111D211D311D42E0000F111FBE
:1009E000221F331F4A95D1F7B801C9011F910F91FA
:1009F00008958F929F92AF92BF92EF92FF924B0118
:100A00005C010E94CF047B0110C00E94CF046E19CC
:100A10007F09683E734048F081E0881A9108A10878
:100A2000B10888E1E81A8CEFF80A81149104A10456
:100A3000B10459F7FF90EF90BF90AF909F908F90C7
:100A40000895789484B5826084BD84B5816084BD46
:100A500085B5826085BD85B5816085BDEEE6F0E037
:100A6000808181608083E1E8F0E010828081826093
:100A70008083808181608083E0E8F0E08081816014
:100A80008083E1EBF0E0808184608083E0EBF0E044
:100A9000808181608083EAE7F0E0808184608083E8
:100AA0008081826080838081816080838081806892
:100AB00080831092C1000895833069F028F481305A
:100AC000A1F0823011F514C08630B1F08730C1F04A
:100AD0008430D9F404C0809180008F7703C0809166
:100AE00080008F7D80938000089584B58F7702C049
:100AF00084B58F7D84BD08958091B0008F7703C049
:100B00008091B0008F7D8093B0000895CF93DF93E4
:100B100090E0FC01E45FFE4F4491FC01E05EFE4F7B
:100B20008491882341F190E0880F991FFC01E85BD4
:100B3000FE4F25913491D901825C9E4FFC01859135
:100B40009491C82FD92F9FB7F8948C91611106C04A
:100B5000409584238C938881842308C0623041F4BB
:100B6000242F209582238C938881842B888302C034
:100B7000842B8C939FBFDF91CF9108950F931F9388
:100B8000CF93DF931F92CDB7DEB7282F30E0F90166
:100B9000E850FF4F8491F901E45FFE4F1491F90191
:100BA000E05EFE4F04910023D1F0882321F0698399
:100BB0000E945C056981E02FF0E0EE0FFF1FE25C10
:100BC000FE4F85919491DC019FB7F8948C9161114F
:100BD00003C01095812301C0812B8C939FBF0F9080
:100BE000DF91CF911F910F9108958F929F92AF92B5
:100BF000BF92CF92DF92EF92FF924C017B015A019C
:100C0000A60EB71EC12CD12C0DC0D7016D917D0150
:100C1000D401ED91FC910190F081E02DC401099582
:100C2000C80ED91EEA14FB0481F7C601FF90EF90AD
:100C3000DF90CF90BF90AF909F908F90089597FBDB
:100C4000072E16F4009407D077FD09D00E943306D2
:100C500007FC05D03EF4909581959F4F08957095BF
:100C600061957F4F0895AA1BBB1B51E107C0AA1FC6
:100C7000BB1FA617B70710F0A61BB70B881F991F3D
:100C80005A95A9F780959095BC01CD010895EE0F76
:100C9000FF1F0590F491E02D099411E0C4E5D1E027
:100CA00004C0FE010E9449062296C635D107C9F745
:040CB000F894FFCFE6
:100CB4000701010040454C462061622364252667F4
:100CC40068292A2C6B6D6E2F000000003B02F5058D
:080CD40075012A014D016601C2
:00000001FF
