:100000000C945D000C94AC010C94D9010C94850007
:100010000C9485000C9485000C9485000C9485004C
:100020000C9485000C9485000C9485000C9485003C
:100030000C9485000C9485000C9485000C9485002C
:100040000C9406020C9485000C9412040C944E043B
:100050000C9485000C9485000C9485000C9485000C
:100060000C9485000C94850000000007000201003C
:100070000003040600000000000000000102040864
:100080001020408001020408102001020408102002
:10009000040404040404040402020202020203032E
:1000A0000303030300000000250028002B000000CC
:1000B0000000240027002A00090511241FBECFEFED
:1000C000D8E0DEBFCDBF11E0A0E0B1E0EAE5FBE0A3
:1000D00002C005900D92AA33B107D9F711E0AAE347
:1000E000B1E001C01D92A23FB107E1F710E0CAEBF9
:1000F000D0E004C02297FE010E94A705C83BD107AB
:10010000C9F70E94A5000C94AB050C94000040E0D8
:1001100052EC61E070E08BE491E00E948904E09190
:100120004B01F0914C010280F381E02D41E150E060
:1001300064E071E08BE491E009950E9419010C9450
:1001400008010E9460010C94E9000E94A2020E9432
:10015000870085E4E82E84E0F82E0E94A100E114D7
:10016000F104D9F30E944504F8CF4F9B0DC03091A4
:10017000000120913C0181E090E0032E01C0880F36
:100180000A94EAF7822B10C03091000120913C01C3
:1001900081E090E002C0880F991F3A95E2F78095C0
:1001A000909530E08223932380933C01809100015D
:1001B000811109C080913C0180933A0181E08093D4
:1001C0003B0187E003C080910001815080930001D2
:1001D000089580913B01882341F060913A018BE4BE
:1001E00091E00E94DB0310923B01089561E085E0FD
:1001F0000E94070360E085E00E943F0368EE73E021
:1002000080E090E00E947A0262E085E00C940703AF
:1002100060E083E00E94070362E087E00E9407033A
:1002200043E050E065EB70E081E00E948C010C94AB
:10023000F60061E084E00C9407038F929F92AF92E6
:10024000BF920E9450024B015C018AE9880E81E056
:10025000981EA11CB11C0E945002681579058A05E0
:100260009B05C8F3BF90AF909F908F900895EF9239
:10027000FF92CF93DF93D82F61E084E00E943F0389
:100280000E941D0188E0E82EF12CC1E08C2F8D2307
:1002900011F060E001C061E084E00E943F030E9431
:1002A0001D01CC0F81E0E81AF10881F760E084E0DD
:1002B0000E943F03DF91CF91FF90EF900C941D01BE
:1002C000E0910201F0910301EA5EFE4F80810E94FD
:1002D000370164E670E080E090E00E947A0280914D
:1002E0003D01882339F0E0910101F0E0E65EFE4F28
:1002F000808101C080E40E94370164E670E080E004
:1003000090E00E947A0283E80E94370164E670E080
:1003100080E090E00C947A028230E8F4E82FF0E07C
:10032000EE0FFF1FE25CFE4F71836083813041F06E
:10033000809169008C7F842B80936900E89A0895EE
:1003400080916900440F551F440F551F837F842BF4
:1003500080936900E99A08951F920F920FB60F9249
:1003600011242F933F934F935F936F937F938F93BA
:100370009F93AF93BF93EF93FF9380913E01909132
:100380003F01892B29F0E0913E01F0913F01099551
:10039000FF91EF91BF91AF919F918F917F916F915D
:1003A0005F914F913F912F910F900FBE0F901F9033
:1003B00018951F920F920FB60F9211242F933F930F
:1003C0004F935F936F937F938F939F93AF93BF935D
:1003D000EF93FF938091400190914101892B29F087
:1003E000E0914001F09141010995FF91EF91BF919A
:1003F000AF919F918F917F916F915F914F913F91BD
:100400002F910F900FBE0F901F9018951F920F9273
:100410000FB60F9211242F933F938F939F93AF9317
:10042000BF938091420190914301A0914401B0910A
:10043000450130914A01232F2D5F2D3720F401967D
:10044000A11DB11D05C0232F2A570296A11DB11D64
:1004500020934A018093420190934301A093440169
:10046000B09345018091460190914701A0914801C8
:10047000B09149010196A11DB11D80934601909351
:100480004701A0934801B0934901BF91AF919F915B
:100490008F913F912F910F900FBE0F901F90189545
:1004A0000F931F939FB7F894009146011091470155
:1004B000209148013091490186B5A89B06C08F3F25
:1004C00021F00F5F1F4F2F4F3F4F9FBF322F212F24
:1004D000102F0027080F111D211D311D42E0000FB4
:1004E000111F221F331F4A95D1F7B801C9011F916F
:1004F0000F9108958F929F92AF92BF92EF92FF92C9
:100500004B015C010E9450027B0110C00E9450020E
:100510006E197F09683E734048F081E0881A91089F
:10052000A108B10888E1E81A8CEFF80A8114910457
:10053000A104B10459F7FF90EF90BF90AF909F9046
:100540008F900895789484B5826084BD84B581606D
:1005500084BD85B5826085BD85B5816085BDEEE6CB
:10056000F0E0808181608083E1E8F0E010828081AA
:1005700082608083808181608083E0E8F0E0808118
:1005800081608083E1EBF0E0808184608083E0EB38
:10059000F0E0808181608083EAE7F0E08081846020
:1005A000808380818260808380818160808380817C
:1005B000806880831092C1000895833069F028F428
:1005C0008130A1F0823011F514C08630B1F087304F
:1005D000C1F08430D9F404C0809180008F7703C0CB
:1005E000809180008F7D80938000089584B58F77FF
:1005F00002C084B58F7D84BD08958091B0008F774F
:1006000003C08091B0008F7D8093B0000895CF9398
:10061000DF9390E0FC01E458FF4F4491FC01E05768
:10062000FF4F8491882341F190E0880F991FFC01CE
:10063000E255FF4F25913491D9018C559F4FFC0114
:1006400085919491C82FD92F9FB7F8948C916111FF
:1006500006C0409584238C938881842308C062302F
:1006600041F4242F209582238C938881842B8883C6
:1006700002C0842B8C939FBFDF91CF9108950F937D
:100680001F93CF93DF931F92CDB7DEB7282F30E0B3
:10069000F901E859FF4F8491F901E458FF4F149193
:1006A000F901E057FF4F04910023D1F0882321F096
:1006B00069830E94DD026981E02FF0E0EE0FFF1FE9
:1006C000EC55FF4F85919491DC019FB7F8948C9184
:1006D000611103C01095812301C0812B8C939FBFB2
:1006E0000F90DF91CF911F910F910895FC018485A8
:1006F0009585FC01E05CFF4F20813181FC01EE5BC0
:10070000FF4F80819181281B390B2F733327C9013B
:100710000895FC0184859585FC01E05CFF4F4081D4
:100720005181FC01EE5BFF4F20813181421753075D
:1007300041F00190F081E02DE80FF91F208130E0B9
:1007400002C02FEF3FEFC9010895FC018485958514
:10075000FC01E05CFF4F40815181FC01EE5BFF4FEB
:10076000208131814217530781F0A081B181A80F08
:10077000B91F8C91208131812F5F3F4F2F73332719
:1007800031832083282F30E002C02FEF3FEFC901D3
:100790000895FC0186859785FC01E05CFF4FDC0134
:1007A000AE5BBF4F408151812D913C911197421713
:1007B0005307C1F70895CF93DF93FC018685978592
:1007C000DC01A05CBF4F2D913C9111972F5F3F4FF3
:1007D0002F733327EC01CE5BDF4F488159812417FB
:1007E0003507D9F30D90BC91A02DA80FB91F6C93BC
:1007F000A685B785A05CBF4F11963C932E93A68922
:10080000B7892C9181E090E0058C02C0880F991F78
:100810000A94E2F7282B2C9381E090E0DF91CF91AE
:10082000089508951F920F920FB60F9211242F93DF
:100830003F934F938F939F93EF93FF934091C60005
:100840008091EE019091EF0101968F73992720918D
:10085000F0013091F1018217930759F0E091EE0118
:10086000F091EF01E255FE4F40839093EF018093AA
:10087000EE01FF91EF919F918F914F913F912F91B9
:100880000F900FBE0F901F9018958BE491E00E947F
:100890007603892B11F00C94110408951F920F9286
:1008A0000FB60F9211242F933F938F939F93EF9343
:1008B000FF932091AA013091AB018091AC019091FE
:1008C000AD012817390731F48091C1008F7D8093E5
:1008D000C10014C0E091AC01F091AD01E659FE4FAA
:1008E00020818091AC019091AD0101968F73992781
:1008F0009093AD018093AC012093C600FF91EF91DE
:100900009F918F913F912F910F900FBE0F901F904D
:100910001895CF92DF92EF92FF92CF93DF93EC0185
:100920006A017B01411581EE580761057105F9F0F7
:10093000EC89FD8981E090E00E8C02C0880F991F40
:100940000A94E2F7808360E079E08DE390E0A7010C
:1009500096010E948305215031094109510956959C
:10096000479537952795211580E1380798F0EC8950
:10097000FD89108260E874E88EE190E0A70196019D
:100980000E94830521503109410951095695479527
:1009900037952795E889F9893083EA89FB8920838F
:1009A000EE89FF89408181E090E09C010A8C02C0C1
:1009B000220F331F0A94E2F7422B4083EE89FF890E
:1009C00040819C010B8C02C0220F331F0A94E2F776
:1009D000422B4083EE89FF8940819C010C8C02C030
:1009E000220F331F0A94E2F7422B4083EE89FF89DE
:1009F00020810D8C02C0880F991F0A94E2F7809520
:100A000082238083DF91CF91FF90EF90DF90CF9092
:100A1000089510924E0110924D0188EE93E0A0E0EF
:100A2000B0E080934F0190935001A0935101B09397
:100A300052018EE291E090934C0180934B018EEA3B
:100A400091E090935801809357018AE691E090934A
:100A50005A018093590185EC90E090935C0180935A
:100A60005B0184EC90E090935E0180935D0180ECEB
:100A700090E09093600180935F0181EC90E090930F
:100A800062018093610186EC90E090936401809311
:100A9000630184E08093650183E08093660187E0D1
:100AA0008093670185E08093680181E0809369010C
:100AB00008958F929F92AF92BF92CF92DF92EF9262
:100AC000FF924C017B015A01A60EB71EC12CD12CFE
:100AD0000DC0D7016D917D01D401ED91FC91019084
:100AE000F081E02DC4010995C80ED91EEA14FB045B
:100AF00081F7C601FF90EF90DF90CF90BF90AF904D
:100B00009F908F900895A1E21A2EAA1BBB1BFD0196
:100B10000DC0AA1FBB1FEE1FFF1FA217B307E407DC
:100B2000F50720F0A21BB30BE40BF50B661F771F34
:100B3000881F991F1A9469F7609570958095909514
:100B40009B01AC01BD01CF010895EE0FFF1F059081
:0A0B5000F491E02D0994F894FFCF12
:100B5A0007070100446562756767696E67207374E9
:100B6A0061727465640040454C46206162236425C5
:100B7A00266768292A2C6B6D6E2F00000000DB03A4
:0A0B8A0059057603A5038903C9038A
:00000001FF
