:100000000C945D000C9400070C942D070C9494063E
:100010000C94B8060C94DC060C9485000C948500B6
:100020000C9485000C9485000C9485000C9485003C
:100030000C9485000C9485000C9485000C9485002C
:100040000C945A070C9485000C94C30A0C94FF0A74
:100050000C9485000C9485000C9485000C9485000C
:100060000C9485000C94850000000007000201003C
:100070000003040600000000000000000102040864
:100080001020408001020408102001020408102002
:10009000040404040404040402020202020203032E
:1000A0000303030300000000250028002B000000CC
:1000B0000000240027002A00BA0B11241FBECFEF36
:1000C000D8E0DEBFCDBF11E0A0E0B1E0E8E6F8E1A6
:1000D00002C005900D92A837B107D9F712E0A8E742
:1000E000B1E001C01D92A437B107E1F710E0CAEBFF
:1000F000D0E004C02297FE010E942E0CC83BD1071D
:10010000C9F70E949F000C94320C0C94000040E24E
:1001100051EA67E070E08DEC91E00E943A0BE091CB
:10012000CD01F091CE010280F381E02D41E150E05C
:1001300060E071E08DEC91E009950C942D040E9433
:1001400008080E94870086EFE82E8AE0F82E0E94B9
:10015000F304E114F104D9F30E94F60AF8CF8EBD3E
:100160000DB407FEFDCF8EB508951F93CF93DF9397
:100170008436910501F14CF484319105A1F082336C
:100180009105A9F00A9759F426C08A3F9105D9F044
:10019000883E23E09207D9F08D37910581F0C5E0C4
:1001A000D8EB10E01BC0C5E0D8EB18E117C0C5E0E4
:1001B000D8EB19E013C0C5E0D8EB14E00FC0C5E0E0
:1001C000D8EB13E00BC0C5E0D8EB11E007C0C2E0EC
:1001D000D0E910E803C0C5E0D8EB11E360E08AE0A5
:1001E0000E94A5086AE070E080E090E00E94E007CD
:1001F00082E00E94AF008AE20E94AF00812F0E943D
:10020000AF006AE070E080E090E00E94E00761E00B
:100210008AE00E94A5086AE070E080E090E00E9419
:10022000E00760E08AE00E94A5086AE070E080E0F4
:1002300090E00E94E00782E00E94AF0089E20E9405
:10024000AF008D2F0E94AF006AE070E080E090E088
:100250000E94E00761E08AE00E94A5086AE070E081
:1002600080E090E00E94E00760E08AE00E94A5083C
:100270006AE070E080E090E00E94E00782E00E9487
:10028000AF0088E20E94AF008C2F0E94AF006AE0AE
:1002900070E080E090E00E94E00761E08AE00E9468
:1002A000A5086AE070E080E090E00E94E00760E06E
:1002B0008AE00E94A5086AE070E080E090E00E9479
:1002C000E00785E00E94AF008CE00E94AF008FE065
:1002D0000E94AF008FE00E94AF006AE070E080E013
:1002E00090E00E94E00761E08AE00E94A5086AE0D1
:1002F00070E080E090E0DF91CF911F910C94E007D7
:10030000CF93DF93D82FC62F60E08AE00E94A50824
:100310006AE070E080E090E00E94E00782E00E94E6
:10032000AF008D2F0E94AF008C2F0E94AF006AE0BB
:1003300070E080E090E00E94E00761E08AE00E94C7
:10034000A5086AE070E080E090E0DF91CF910C9426
:10035000E007CF93853030F4E82FF0E0EE5EFE4FFB
:10036000C08101C0C0E060E08AE00E94A50885E08D
:100370000E94AF008FE00E94AF0080EE0E94AF00AD
:100380008C2F0E94AF0061E08AE0CF910C94A50809
:100390000F931F93CF93DF9300D01F92CDB7DEB79B
:1003A000182F80E02B834A8369830E94A901698109
:1003B000812F0E9480014A81642F812F8F5F0E94CC
:1003C00080012B81622F812F8E5F0E948001602F20
:1003D000812F8D5F0E94800181E00F900F900F9020
:1003E000DF91CF911F910F910C94A901CF9360E001
:1003F0008AE00E94A50880EB0E94AF008FEF0E9468
:10040000AF00C82F8FEF0E94AF0061E08AE00E942A
:10041000A5088C2FCF91089560E08AE00E94A5087E
:1004200083E00E94AF008EE20E94AF008FEF0E9437
:10043000AF0040E150E0682F8DEC91E00E94B909D7
:1004400061E08AE00E94A5080895CF92DF92EF92C2
:10045000FF920F931F93CF93DF93F82EC62F6A015D
:10046000D22F132F60E08AE00E94A5088F2D0E94F2
:10047000AF00F6010023E9F08281938135E0969583
:1004800087953A95E1F70E94AF00F6019281F8E076
:100490009F9FA0011124407E4860892F8370842B88
:1004A0000E94AF00F60181810E94AF00F6018081B9
:1004B00018C080819181A281B38123E0B695A79570
:1004C000979587952A95D1F70E94AF00F601808114
:1004D0008295880F807E0E94AF0080E00E94AF006E
:1004E00080E00E94AF008C2F0E94AF00CD2ED12E55
:1004F00005C0F60181916F010E94AF008C2D8D1B0C
:100500008C17B8F361E08AE00E94A50862E370E00E
:1005100080E090E00E94E00760E08AE00E94A50889
:100520008E2D0E94AF0061E08AE0DF91CF911F9194
:100530000F91FF90EF90DF90CF900C94A508EF9271
:100540000F93E1E8EE2E022F9A01AB01682F80E4B1
:100550000E9425020F91EF900895CF93803919F0F2
:100560008439E9F409C060E08AE00E94A50883E0CC
:100570000E94AF0080E608C060E08AE00E94A50803
:1005800083E00E94AF0080E70E94AF008FEF0E94DF
:10059000AF00C82F61E08AE00E94A50801C0C0E05A
:1005A0008C2F8370CF9108952F923F924F925F923C
:1005B0006F927F928F929F92AF92BF92CF92DF9273
:1005C000EF92FF920F931F93CF93DF9300D0CDB79D
:1005D000DEB7282E3B01542E6901480160E08AE015
:1005E00059830E94A508822D0E94AF008FEF0E94C0
:1005F000AF00382E8FEF0E94AF008A838FEF0E94EA
:10060000AF00482E8FEF0E94AF00082F8FEF0E949F
:10061000AF00182F1F70A52C5981B52E06C08FEF83
:100620000E94AF00F50181935F018A2D8519811722
:10063000B0F361E08AE00E94A508F3011083432D26
:1006400050E0FA81F3FF1EC015E0440F551F1A95C4
:10065000E1F7F601538342834182FA812F2F30E084
:1006600083E0359527958A95E1F72C713327422B46
:100670008F2F8370482BF6014283008381E0F401C1
:10068000808316C0B3E0440F551FBA95E1F78A8105
:10069000829586958770480F511D662757FD609596
:1006A000762FF6014083518362837383F4011082B5
:1006B000822D0E94AD02F70180830F900F90DF9191
:1006C000CF911F910F91FF90EF90DF90CF90BF904F
:1006D000AF909F908F907F906F905F904F903F90E2
:1006E0002F900895EF92FF920F931F937801890145
:1006F0009A01AB01BC0184E90E94D4021F910F91C1
:10070000FF90EF900895EF92FF920F931F9378015F
:1007100089019A01AB01BC0180E90E94D4021F91BA
:100720000F91FF90EF9008950F9300E020E040E0DC
:1007300060E080E20E94C80120E040E060E080E0EC
:100740000E94C80120E040E060E084E00E94C8010F
:1007500020E040E060E084E20E94C80120E040E048
:1007600060E088E00E94C80120E040E060E080E1B5
:100770000E94C80120E040E060E084E10E94C801DE
:1007800020E040E060E088E10E94C8010F910895F8
:1007900061E08DE00E946D0860E08CE00E946D08D1
:1007A00061E08BE00E946D0861E08AE00E946D08C4
:1007B00061E082E00E946D0860E083E00E946D08C5
:1007C00061E083E00E94A5080E94D90580E00E94B4
:1007D000010680E00E94060681E00E94F80560E0C4
:1007E00082E00E94A5086AE070E080E090E00E944C
:1007F000E00761E082E00E94A50864E670E080E026
:1008000090E00E94E0070C94940360E08AE00E946C
:10081000A50885E00E94AF008EE20E94AF0081E053
:100820000E94AF0080E00E94AF0061E08AE00C947B
:10083000A50860E08AE00E94A50885E00E94AF005C
:100840008EE20E94AF0082E00E94AF0080E00E9432
:10085000AF0061E08AE00C94A50861E089E00E94A5
:100860006D0861E089E00E94A5080E94C8030E940B
:100870000C0280E00E94A9010E940C0288EE93E025
:100880000E94B5000E940C0284E00E94A90164E667
:1008900070E080E090E00E94E0070E940C020E945D
:1008A000A40768517C4F8F4F9F4F609378017093DE
:1008B000790180937A0190937B0108954F925F9222
:1008C0006F927F92AF92CF92DF92EF920F93CF937E
:1008D000DF93D82FC62F29013A0167E171E08DEC33
:1008E00091E00E94160940E150E06D2F8DEC91E0FF
:1008F0000E94B20964E271E08DEC91E00E94160959
:1009000040E150E06C2F8DEC91E00E94B2096AE268
:1009100071E08DEC91E00E94160920E130E0B30116
:10092000A2018DEC91E00E94A50962E371E08DECDB
:1009300091E00E94160961E070E081E0A81611F0D4
:1009400060E070E040E150E08DEC91E00E941F0A11
:1009500069E371E08DEC91E00E94160940E150E0FE
:10096000602F8DEC91E00E94B20962E471E08DECA1
:1009700091E00E94160940E150E06E2D8DEC91E06F
:100980000E94B2096BE471E08DEC91E00E941609BF
:100990003601412C512C06C063E571E08DEC91E0ED
:1009A0000E941609F30161913F0140E150E08DEC96
:1009B00091E00E94B209FFEF4F1A5F0A88E04816E3
:1009C000510451F765E571E08DEC91E0DF91CF9135
:1009D0000F91EF90DF90CF90AF907F906F905F90EE
:1009E0004F900C9435098F929F92AF92BF92CF9205
:1009F000DF92EF920F931F93CF93DF93CDB7DEB7C4
:100A00002F970FB6F894DEBF0FBECDBF19821A82A2
:100A10001B821C821D821E821F82188619861A86DE
:100A20001B861C861F860E94F601B82E86FF2CC0EE
:100A30008E01025F1F4F9E01235F3F4FAE01475F54
:100A40005F4FBE016F5F7F4FCE010F960E94830301
:100A500029853A854B855C85AD84CC24C394D12C03
:100A6000CC0EDD1EE12C0E856F858B2D0E945E0461
:100A70000E9405040E94F601B82E40E150E0682F64
:100A80008DEC91E00E94B909B7FE2CC08E01025F87
:100A90001F4F9E01235F3F4FAE01475F5F4FBE0177
:100AA0006F5F7F4FCE010F960E94720329853A85B2
:100AB0004B855C85AD84CC24C394D12CCC0EDD1E3B
:100AC000EE24E3940E856F858B2D0E945E040E94B8
:100AD00019040E94F60140E150E0682F8DEC91E08E
:100AE0000E94B9098090780190907901A0907A01D4
:100AF000B0907B010E94A40786169706A806B90647
:100B000008F03FC085E5898384EA8A8384E08B838B
:100B100084EF8C8384E18D8384EC8E838CEF8F83D0
:100B20008DE1888780E090E0A3E2B1E089879A8731
:100B3000AB87BC8788E08F8721E0AE014F5F5F4FB6
:100B4000BE01675F7F4F0E949F0260E777E180E010
:100B500090E00E94E0070E94A40768517C4F8F4FED
:100B60009F4F609378017093790180937A019093FD
:100B70007B0167E571E08DEC91E00E9435090E94F0
:100B80000C0268EE73E080E090E00E94E0072F9690
:100B90000FB6F894DEBF0FBECDBFDF91CF911F918E
:100BA0000F91EF90DF90CF90BF90AF909F908F907C
:100BB000089561E08DE00E946D0861E08BE00E9485
:100BC0006D0861E08AE00E946D0860E08DE00E949F
:100BD000A50860E08BE00E94A50861E08AE00E9421
:100BE000A5088CB580618CBD8CB580648CBD0895E2
:100BF000811103C08CB5806202C08CB58F7D8CBD25
:100C000008959CB5937F982B9CBD08952CB5982F83
:100C100093702C7F922B9CBD9DB582FB882780F919
:100C20009E7F982B9DBD089520E001972FEF8F3F69
:100C30009207D9F70895CF92DF92EF92FF92CF9368
:100C4000DF937C01DC015B968C915B971E96ED91A6
:100C5000FC911F971D969C9181FF04C08081892380
:100C600029F452C08081892309F04EC0F70183899D
:100C700094890E94140688E0C82ED12CD1E0C0E0EF
:100C8000D70155968D919C9156970E941406D701D5
:100C90001E96ED91FC911F9780811D969C91892352
:100CA00011F0CD2B03C08D2F8095C823DD0FB1E04F
:100CB000CB1AD10829F7F7018789908D0E94140675
:100CC000D7015B968C9181FDC09580917D0120912B
:100CD0007C0190E001968F73992730E0821793078B
:100CE00079F0E0917D01F0E0E258FE4FC083809101
:100CF0007D0190E001968F73992780937D0104C058
:100D0000F701838D8160838FDF91CF91FF90EF900A
:100D1000DF90CF9008958091BE019091BF01009720
:100D200011F00C941B0608951F920F920FB60F92AC
:100D300011242F933F934F935F936F937F938F93E0
:100D40009F93AF93BF93EF93FF930E948B06FF9106
:100D5000EF91BF91AF919F918F917F916F915F9133
:100D60004F913F912F910F900FBE0F901F901895AC
:100D70001F920F920FB60F9211242F933F934F9310
:100D80005F936F937F938F939F93AF93BF93EF93F3
:100D9000FF930E948B06FF91EF91BF91AF919F91BE
:100DA0008F917F916F915F914F913F912F910F9014
:100DB0000FBE0F901F9018951F920F920FB60F92B3
:100DC00011242F933F934F935F936F937F938F9350
:100DD0009F93AF93BF93EF93FF930E948B06FF9176
:100DE000EF91BF91AF919F918F917F916F915F91A3
:100DF0004F913F912F910F900FBE0F901F9018951C
:100E00001F920F920FB60F9211242F933F934F937F
:100E10005F936F937F938F939F93AF93BF93EF9362
:100E2000FF938091C0019091C101892B29F0E0913D
:100E3000C001F091C1010995FF91EF91BF91AF9170
:100E40009F918F917F916F915F914F913F912F91E2
:100E50000F900FBE0F901F9018951F920F920FB614
:100E60000F9211242F933F934F935F936F937F9330
:100E70008F939F93AF93BF93EF93FF938091C201A2
:100E80009091C301892B29F0E091C201F091C30137
:100E90000995FF91EF91BF91AF919F918F917F91B4
:100EA0006F915F914F913F912F910F900FBE0F90D7
:100EB0001F9018951F920F920FB60F9211242F9327
:100EC0003F938F939F93AF93BF938091C401909171
:100ED000C501A091C601B091C7013091CC01232F6B
:100EE0002D5F2D3720F40196A11DB11D05C0232FC4
:100EF0002A570296A11DB11D2093CC018093C401F5
:100F00009093C501A093C601B093C7018091C80119
:100F10009091C901A091CA01B091CB010196A11D88
:100F2000B11D8093C8019093C901A093CA01B093E9
:100F3000CB01BF91AF919F918F913F912F910F90D6
:100F40000FBE0F901F9018950F931F938FB7F894B3
:100F50000091C4011091C5012091C6013091C701D3
:100F60008FBFB801C9011F910F9108950F931F936F
:100F70009FB7F8940091C8011091C9012091CA014E
:100F80003091CB0186B5A89B06C08F3F21F00F5F43
:100F90001F4F2F4F3F4F9FBF322F212F102F002762
:100FA000080F111D211D311D42E0000F111F221FCE
:100FB000331F4A95D1F7B801C9011F910F910895C8
:100FC0008F929F92AF92BF92EF92FF924B015C0182
:100FD0000E94B6077B0110C00E94B6076E197F09F8
:100FE000683E734048F081E0881A9108A108B10872
:100FF00088E1E81A8CEFF80A81149104A104B10485
:1010000059F7FF90EF90BF90AF909F908F90089509
:10101000789484B5826084BD84B5816084BD85B5D3
:10102000826085BD85B5816085BDEEE6F0E080819A
:1010300081608083E1E8F0E01082808182608083BB
:10104000808181608083E0E8F0E08081816080833E
:10105000E1EBF0E0808184608083E0EBF0E0808170
:1010600081608083EAE7F0E0808184608083808112
:1010700082608083808181608083808180688083BA
:101080001092C1000895833069F028F48130A1F0F6
:10109000823011F514C08630B1F08730C1F0843051
:1010A000D9F404C0809180008F7703C080918000C4
:1010B0008F7D80938000089584B58F7702C084B5BA
:1010C0008F7D84BD08958091B0008F7703C080919B
:1010D000B0008F7D8093B0000895CF93DF9390E0B0
:1010E000FC01E458FF4F4491FC01E057FF4F84910D
:1010F000882341F190E0880F991FFC01E255FF4FD2
:1011000025913491D9018C559F4FFC018591949183
:10111000C82FD92F9FB7F8948C91611106C04095C4
:1011200084238C938881842308C0623041F4242F67
:10113000209582238C938881842B888302C0842B02
:101140008C939FBFDF91CF9108950F931F93CF93FF
:10115000DF931F92CDB7DEB7282F30E0F901E859B1
:10116000FF4F8491F901E458FF4F1491F901E057C2
:10117000FF4F04910023D1F0882321F069830E945E
:1011800043086981E02FF0E0EE0FFF1FEC55FF4FA1
:1011900085919491DC019FB7F8948C91611103C003
:1011A0001095812301C0812B8C939FBF0F90DF91FD
:1011B000CF911F910F9108958F929F92AF92BF92FE
:1011C000CF92DF92EF92FF924C017B015A01A60E63
:1011D000B71EC12CD12C0DC0D7016D917D01D4015A
:1011E000ED91FC910190F081E02DC4010995C80EAC
:1011F000D91EEA14FB0481F7C601FF90EF90DF903F
:10120000CF90BF90AF909F908F900895DB010D908D
:101210000020E9F7AD0141505109461B570BDC0195
:10122000ED91FC910280F381E02D09940C94060964
:10123000DC01ED91FC910190F081E02D0994CF92B9
:10124000DF92EF92FF927C016DE00E9418096C0121
:101250006AE0C7010E9418099C012C0D3D1DC901BF
:10126000FF90EF90DF90CF900895CF92DF92EF92B2
:10127000FF927C010E9406096C01C7010E941F09B0
:101280009601280F391FC901FF90EF90DF90CF9092
:1012900008955F926F927F928F929F92AF92BF92CA
:1012A000CF92DF92EF92FF920F931F93CF93DF9332
:1012B000CDB7DEB7A1970FB6F894DEBF0FBECDBF96
:1012C0003C016A017B01522E19A281E0821710F0C5
:1012D0008AE0582E8E010F5D1F4F852C912CA12C7A
:1012E000B12CC701B601A50194010E940A0C8C2DF6
:1012F000529E80191124015011098A3010F4805D2A
:1013000001C0895CF801808369017A01C114D104AC
:10131000E104F10431F7B801C3010E940609A19666
:101320000FB6F894DEBF0FBECDBFDF91CF911F91F6
:101330000F91FF90EF90DF90CF90BF90AF909F9074
:101340008F907F906F905F9008952115310541F443
:10135000DC01ED91FC910190F081E02D642F099466
:101360000C9449099A01462F50E060E070E00C941B
:10137000A509CF92DF92EF92FF927C019A01462F4E
:1013800050E060E070E00E94A5096C01C7010E9476
:101390001F099601280F391FC901FF90EF90DF90B8
:1013A000CF9008958F929F92AF92BF92CF92DF928B
:1013B000EF92FF927C014A015B012115310581F416
:1013C000DC01ED91FC910190F081E02D642FFF9004
:1013D000EF90DF90CF90BF90AF909F908F90099447
:1013E0002A30310519F477FD0EC02AE0B501A401B9
:1013F000C701FF90EF90DF90CF90BF90AF909F908C
:101400008F900C9449096DE20E9418096C014427E1
:101410005527BA01481959096A097B092AE0C70109
:101420000E9449099C012C0D3D1DC901FF90EF90C0
:10143000DF90CF90BF90AF909F908F9008959A01CA
:10144000AB01662757FD6095762F0C94D209FC01FD
:1014500084859585FC01E05CFF4F20813181FC0192
:10146000EE5BFF4F80819181281B390B2F7333274F
:10147000C9010895FC0184859585FC01E05CFF4F5E
:1014800040815181FC01EE5BFF4F20813181421789
:10149000530741F00190F081E02DE80FF91F208102
:1014A00030E002C02FEF3FEFC9010895FC018485B1
:1014B0009585FC01E05CFF4F40815181FC01EE5BB2
:1014C000FF4F208131814217530781F0A081B18104
:1014D000A80FB91F8C91208131812F5F3F4F2F734F
:1014E000332731832083282F30E002C02FEF3FEFD6
:1014F000C9010895FC0186859785FC01E05CFF4FDA
:10150000DC01AE5BBF4F408151812D913C91119721
:1015100042175307C1F70895CF93DF93FC018685E7
:101520009785DC01A05CBF4F2D913C9111972F5FF7
:101530003F4F2F733327EC01CE5BDF4F488159813A
:1015400024173507D9F30D90BC91A02DA80FB91F12
:101550006C93A685B785A05CBF4F11963C932E93E4
:10156000A689B7892C9181E090E0058C02C0880F94
:10157000991F0A94E2F7282B2C9381E090E0DF91E9
:10158000CF91089508951F920F920FB60F921124D4
:101590002F933F934F938F939F93EF93FF9340919C
:1015A000C600809170029091710201968F73992705
:1015B00020917202309173028217930759F0E091E3
:1015C0007002F0917102E05DFD4F408390937102D3
:1015D00080937002FF91EF919F918F914F913F9176
:1015E0002F910F900FBE0F901F9018958DEC91E0EA
:1015F0000E94270A892B11F00C94C20A08951F92A9
:101600000F920FB60F9211242F933F938F939F93B6
:10161000EF93FF9320912C0230912D0280912E02A6
:1016200090912F022817390731F48091C1008F7DE6
:101630008093C10014C0E0912E02F0912F02E4517A
:10164000FE4F208180912E0290912F0201968F7380
:10165000992790932F0280932E022093C600FF912A
:10166000EF919F918F913F912F910F900FBE0F900F
:101670001F901895CF92DF92EF92FF92CF93DF9356
:10168000EC016A017B01411581EE58076105710586
:10169000F9F0EC89FD8981E090E00E8C02C0880FA2
:1016A000991F0A94E2F7808360E079E08DE390E08F
:1016B000A70196010E940A0C2150310941095109E4
:1016C0005695479537952795211580E1380798F06D
:1016D000EC89FD89108260E874E88EE190E0A70152
:1016E00096010E940A0C2150310941095109569571
:1016F000479537952795E889F9893083EA89FB89E9
:101700002083EE89FF89408181E090E09C010A8C72
:1017100002C0220F331F0A94E2F7422B4083EE8966
:10172000FF8940819C010B8C02C0220F331F0A9459
:10173000E2F7422B4083EE89FF8940819C010C8CAB
:1017400002C0220F331F0A94E2F7422B4083EE8936
:10175000FF8920810D8C02C0880F991F0A94E2F73F
:10176000809582238083DF91CF91FF90EF90DF906F
:10177000CF9008951092D0011092CF0188EE93E09F
:10178000A0E0B0E08093D1019093D201A093D30167
:10179000B093D4018BE691E09093CE018093CD017C
:1017A00080E392E09093DA018093D9018CEE91E08E
:1017B0009093DC018093DB0185EC90E09093DE0157
:1017C0008093DD0184EC90E09093E0018093DF0151
:1017D00080EC90E09093E2018093E10181EC90E055
:1017E0009093E4018093E30186EC90E09093E6010E
:1017F0008093E50184E08093E70183E08093E80132
:1018000087E08093E90185E08093EA0181E080939D
:10181000EB010895A1E21A2EAA1BBB1BFD010DC00E
:10182000AA1FBB1FEE1FFF1FA217B307E407F50790
:1018300020F0A21BB30BE40BF50B661F771F881F6C
:10184000991F1A9469F760957095809590959B0102
:10185000AC01BD01CF010895EE0FFF1F0590F4917B
:08186000E02D0994F894FFCF7C
:10186800446562756767696E672073746172746531
:10187800640080002060405B52785D20537461747E
:1018880075733A00204C656E3A00204672616D65AA
:101898003A00204558543F3A002046696C746572F6
:1018A8003A00204275666665723A002044617461A8
:1018B8003A5B0020005D0053656E64696E67206DB9
:1018C80065737361676500000000008C0ADC0827F7
:0818D8000A560A3A0A7A0A00D6
:00000001FF
